{
  "contractName": "Pixls",
  "abi": [
    {
      "inputs": [
        {
          "internalType": "string",
          "name": "name",
          "type": "string"
        },
        {
          "internalType": "string",
          "name": "symbol",
          "type": "string"
        },
        {
          "internalType": "string",
          "name": "baseURI",
          "type": "string"
        }
      ],
      "stateMutability": "nonpayable",
      "type": "constructor"
    },
    {
      "anonymous": false,
      "inputs": [
        {
          "indexed": true,
          "internalType": "address",
          "name": "owner",
          "type": "address"
        },
        {
          "indexed": true,
          "internalType": "address",
          "name": "approved",
          "type": "address"
        },
        {
          "indexed": true,
          "internalType": "uint256",
          "name": "tokenId",
          "type": "uint256"
        }
      ],
      "name": "Approval",
      "type": "event"
    },
    {
      "anonymous": false,
      "inputs": [
        {
          "indexed": true,
          "internalType": "address",
          "name": "owner",
          "type": "address"
        },
        {
          "indexed": true,
          "internalType": "address",
          "name": "operator",
          "type": "address"
        },
        {
          "indexed": false,
          "internalType": "bool",
          "name": "approved",
          "type": "bool"
        }
      ],
      "name": "ApprovalForAll",
      "type": "event"
    },
    {
      "anonymous": false,
      "inputs": [
        {
          "indexed": true,
          "internalType": "address",
          "name": "previousOwner",
          "type": "address"
        },
        {
          "indexed": true,
          "internalType": "address",
          "name": "newOwner",
          "type": "address"
        }
      ],
      "name": "OwnershipTransferred",
      "type": "event"
    },
    {
      "anonymous": false,
      "inputs": [
        {
          "indexed": true,
          "internalType": "address",
          "name": "from",
          "type": "address"
        },
        {
          "indexed": true,
          "internalType": "address",
          "name": "to",
          "type": "address"
        },
        {
          "indexed": true,
          "internalType": "uint256",
          "name": "tokenId",
          "type": "uint256"
        }
      ],
      "name": "Transfer",
      "type": "event"
    },
    {
      "inputs": [],
      "name": "MAX_PIXL_SUPPLY",
      "outputs": [
        {
          "internalType": "uint256",
          "name": "",
          "type": "uint256"
        }
      ],
      "stateMutability": "view",
      "type": "function",
      "constant": true
    },
    {
      "inputs": [],
      "name": "ORIGINAL_PROVENANCE",
      "outputs": [
        {
          "internalType": "string",
          "name": "",
          "type": "string"
        }
      ],
      "stateMutability": "view",
      "type": "function",
      "constant": true
    },
    {
      "inputs": [],
      "name": "R",
      "outputs": [
        {
          "internalType": "string",
          "name": "",
          "type": "string"
        }
      ],
      "stateMutability": "view",
      "type": "function",
      "constant": true
    },
    {
      "inputs": [],
      "name": "REVEAL_TIMESTAMP",
      "outputs": [
        {
          "internalType": "uint256",
          "name": "",
          "type": "uint256"
        }
      ],
      "stateMutability": "view",
      "type": "function",
      "constant": true
    },
    {
      "inputs": [],
      "name": "SALE_START_TIMESTAMP",
      "outputs": [
        {
          "internalType": "uint256",
          "name": "",
          "type": "uint256"
        }
      ],
      "stateMutability": "view",
      "type": "function",
      "constant": true
    },
    {
      "inputs": [
        {
          "internalType": "address",
          "name": "to",
          "type": "address"
        },
        {
          "internalType": "uint256",
          "name": "tokenId",
          "type": "uint256"
        }
      ],
      "name": "approve",
      "outputs": [],
      "stateMutability": "nonpayable",
      "type": "function"
    },
    {
      "inputs": [
        {
          "internalType": "address",
          "name": "owner",
          "type": "address"
        }
      ],
      "name": "balanceOf",
      "outputs": [
        {
          "internalType": "uint256",
          "name": "",
          "type": "uint256"
        }
      ],
      "stateMutability": "view",
      "type": "function",
      "constant": true
    },
    {
      "inputs": [],
      "name": "baseURI",
      "outputs": [
        {
          "internalType": "string",
          "name": "",
          "type": "string"
        }
      ],
      "stateMutability": "view",
      "type": "function",
      "constant": true
    },
    {
      "inputs": [
        {
          "internalType": "uint256",
          "name": "tokenId",
          "type": "uint256"
        }
      ],
      "name": "getApproved",
      "outputs": [
        {
          "internalType": "address",
          "name": "",
          "type": "address"
        }
      ],
      "stateMutability": "view",
      "type": "function",
      "constant": true
    },
    {
      "inputs": [
        {
          "internalType": "address",
          "name": "owner",
          "type": "address"
        },
        {
          "internalType": "address",
          "name": "operator",
          "type": "address"
        }
      ],
      "name": "isApprovedForAll",
      "outputs": [
        {
          "internalType": "bool",
          "name": "",
          "type": "bool"
        }
      ],
      "stateMutability": "view",
      "type": "function",
      "constant": true
    },
    {
      "inputs": [],
      "name": "name",
      "outputs": [
        {
          "internalType": "string",
          "name": "",
          "type": "string"
        }
      ],
      "stateMutability": "view",
      "type": "function",
      "constant": true
    },
    {
      "inputs": [],
      "name": "owner",
      "outputs": [
        {
          "internalType": "address",
          "name": "",
          "type": "address"
        }
      ],
      "stateMutability": "view",
      "type": "function",
      "constant": true
    },
    {
      "inputs": [
        {
          "internalType": "uint256",
          "name": "tokenId",
          "type": "uint256"
        }
      ],
      "name": "ownerOf",
      "outputs": [
        {
          "internalType": "address",
          "name": "",
          "type": "address"
        }
      ],
      "stateMutability": "view",
      "type": "function",
      "constant": true
    },
    {
      "inputs": [],
      "name": "renounceOwnership",
      "outputs": [],
      "stateMutability": "nonpayable",
      "type": "function"
    },
    {
      "inputs": [
        {
          "internalType": "address",
          "name": "from",
          "type": "address"
        },
        {
          "internalType": "address",
          "name": "to",
          "type": "address"
        },
        {
          "internalType": "uint256",
          "name": "tokenId",
          "type": "uint256"
        }
      ],
      "name": "safeTransferFrom",
      "outputs": [],
      "stateMutability": "nonpayable",
      "type": "function"
    },
    {
      "inputs": [
        {
          "internalType": "address",
          "name": "from",
          "type": "address"
        },
        {
          "internalType": "address",
          "name": "to",
          "type": "address"
        },
        {
          "internalType": "uint256",
          "name": "tokenId",
          "type": "uint256"
        },
        {
          "internalType": "bytes",
          "name": "_data",
          "type": "bytes"
        }
      ],
      "name": "safeTransferFrom",
      "outputs": [],
      "stateMutability": "nonpayable",
      "type": "function"
    },
    {
      "inputs": [
        {
          "internalType": "address",
          "name": "operator",
          "type": "address"
        },
        {
          "internalType": "bool",
          "name": "approved",
          "type": "bool"
        }
      ],
      "name": "setApprovalForAll",
      "outputs": [],
      "stateMutability": "nonpayable",
      "type": "function"
    },
    {
      "inputs": [],
      "name": "startingIndex",
      "outputs": [
        {
          "internalType": "uint256",
          "name": "",
          "type": "uint256"
        }
      ],
      "stateMutability": "view",
      "type": "function",
      "constant": true
    },
    {
      "inputs": [],
      "name": "startingIndexBlock",
      "outputs": [
        {
          "internalType": "uint256",
          "name": "",
          "type": "uint256"
        }
      ],
      "stateMutability": "view",
      "type": "function",
      "constant": true
    },
    {
      "inputs": [
        {
          "internalType": "bytes4",
          "name": "interfaceId",
          "type": "bytes4"
        }
      ],
      "name": "supportsInterface",
      "outputs": [
        {
          "internalType": "bool",
          "name": "",
          "type": "bool"
        }
      ],
      "stateMutability": "view",
      "type": "function",
      "constant": true
    },
    {
      "inputs": [],
      "name": "symbol",
      "outputs": [
        {
          "internalType": "string",
          "name": "",
          "type": "string"
        }
      ],
      "stateMutability": "view",
      "type": "function",
      "constant": true
    },
    {
      "inputs": [
        {
          "internalType": "uint256",
          "name": "index",
          "type": "uint256"
        }
      ],
      "name": "tokenByIndex",
      "outputs": [
        {
          "internalType": "uint256",
          "name": "",
          "type": "uint256"
        }
      ],
      "stateMutability": "view",
      "type": "function",
      "constant": true
    },
    {
      "inputs": [
        {
          "internalType": "address",
          "name": "owner",
          "type": "address"
        },
        {
          "internalType": "uint256",
          "name": "index",
          "type": "uint256"
        }
      ],
      "name": "tokenOfOwnerByIndex",
      "outputs": [
        {
          "internalType": "uint256",
          "name": "",
          "type": "uint256"
        }
      ],
      "stateMutability": "view",
      "type": "function",
      "constant": true
    },
    {
      "inputs": [
        {
          "internalType": "uint256",
          "name": "tokenId",
          "type": "uint256"
        }
      ],
      "name": "tokenURI",
      "outputs": [
        {
          "internalType": "string",
          "name": "",
          "type": "string"
        }
      ],
      "stateMutability": "view",
      "type": "function",
      "constant": true
    },
    {
      "inputs": [],
      "name": "totalSupply",
      "outputs": [
        {
          "internalType": "uint256",
          "name": "",
          "type": "uint256"
        }
      ],
      "stateMutability": "view",
      "type": "function",
      "constant": true
    },
    {
      "inputs": [
        {
          "internalType": "address",
          "name": "from",
          "type": "address"
        },
        {
          "internalType": "address",
          "name": "to",
          "type": "address"
        },
        {
          "internalType": "uint256",
          "name": "tokenId",
          "type": "uint256"
        }
      ],
      "name": "transferFrom",
      "outputs": [],
      "stateMutability": "nonpayable",
      "type": "function"
    },
    {
      "inputs": [
        {
          "internalType": "address",
          "name": "newOwner",
          "type": "address"
        }
      ],
      "name": "transferOwnership",
      "outputs": [],
      "stateMutability": "nonpayable",
      "type": "function"
    },
    {
      "inputs": [
        {
          "internalType": "uint256",
          "name": "index",
          "type": "uint256"
        }
      ],
      "name": "isMintedBeforeReveal",
      "outputs": [
        {
          "internalType": "bool",
          "name": "",
          "type": "bool"
        }
      ],
      "stateMutability": "view",
      "type": "function",
      "constant": true
    },
    {
      "inputs": [],
      "name": "getPixlMaxAmount",
      "outputs": [
        {
          "internalType": "uint256",
          "name": "",
          "type": "uint256"
        }
      ],
      "stateMutability": "view",
      "type": "function",
      "constant": true
    },
    {
      "inputs": [],
      "name": "getPixlPrice",
      "outputs": [
        {
          "internalType": "uint256",
          "name": "",
          "type": "uint256"
        }
      ],
      "stateMutability": "view",
      "type": "function",
      "constant": true
    },
    {
      "inputs": [
        {
          "internalType": "uint256",
          "name": "numberOfPixls",
          "type": "uint256"
        }
      ],
      "name": "mintAPixl",
      "outputs": [],
      "stateMutability": "payable",
      "type": "function",
      "payable": true
    },
    {
      "inputs": [],
      "name": "finalizeStartingIndex",
      "outputs": [],
      "stateMutability": "nonpayable",
      "type": "function"
    },
    {
      "inputs": [],
      "name": "withdraw",
      "outputs": [],
      "stateMutability": "nonpayable",
      "type": "function"
    },
    {
      "inputs": [
        {
          "internalType": "string",
          "name": "baseURI",
          "type": "string"
        }
      ],
      "name": "changeBaseURI",
      "outputs": [],
      "stateMutability": "nonpayable",
      "type": "function"
    }
  ],
  "bytecode": "0x60806040523480156200001157600080fd5b50604051620047ba380380620047ba833981810160405260608110156200003757600080fd5b81019080805160405193929190846401000000008211156200005857600080fd5b838201915060208201858111156200006f57600080fd5b82518660018202830111640100000000821117156200008d57600080fd5b8083526020830192505050908051906020019080838360005b83811015620000c3578082015181840152602081019050620000a6565b50505050905090810190601f168015620000f15780820380516001836020036101000a031916815260200191505b50604052602001805160405193929190846401000000008211156200011557600080fd5b838201915060208201858111156200012c57600080fd5b82518660018202830111640100000000821117156200014a57600080fd5b8083526020830192505050908051906020019080838360005b838110156200018057808201518184015260208101905062000163565b50505050905090810190601f168015620001ae5780820380516001836020036101000a031916815260200191505b5060405260200180516040519392919084640100000000821115620001d257600080fd5b83820191506020820185811115620001e957600080fd5b82518660018202830111640100000000821117156200020757600080fd5b8083526020830192505050908051906020019080838360005b838110156200023d57808201518184015260208101905062000220565b50505050905090810190601f1680156200026b5780820380516001836020036101000a031916815260200191505b506040525050508282620002b16301ffc9a77c01000000000000000000000000000000000000000000000000000000000262000479640100000000026401000000009004565b8160069080519060200190620002c9929190620005c2565b508060079080519060200190620002e2929190620005c2565b50620003206380ac58cd7c01000000000000000000000000000000000000000000000000000000000262000479640100000000026401000000009004565b6200035d635b5e139f7c01000000000000000000000000000000000000000000000000000000000262000479640100000000026401000000009004565b6200039a63780e9d637c01000000000000000000000000000000000000000000000000000000000262000479640100000000026401000000009004565b50506000620003b76200059e640100000000026401000000009004565b905080600a60006101000a81548173ffffffffffffffffffffffffffffffffffffffff021916908373ffffffffffffffffffffffffffffffffffffffff1602179055508073ffffffffffffffffffffffffffffffffffffffff16600073ffffffffffffffffffffffffffffffffffffffff167f8be0079c531659141344cd1fd0a4f28419497f9722a3daafe3b4186f6b6457e060405160405180910390a3506200047081620005a6640100000000026401000000009004565b50505062000678565b63ffffffff7c010000000000000000000000000000000000000000000000000000000002817bffffffffffffffffffffffffffffffffffffffffffffffffffffffff1916141562000532576040517f08c379a000000000000000000000000000000000000000000000000000000000815260040180806020018281038252601c8152602001807f4552433136353a20696e76616c696420696e746572666163652069640000000081525060200191505060405180910390fd5b6001600080837bffffffffffffffffffffffffffffffffffffffffffffffffffffffff19167bffffffffffffffffffffffffffffffffffffffffffffffffffffffff1916815260200190815260200160002060006101000a81548160ff02191690831515021790555050565b600033905090565b8060099080519060200190620005be929190620005c2565b5050565b828054600181600116156101000203166002900490600052602060002090601f016020900481019282620005fa576000855562000646565b82601f106200061557805160ff191683800117855562000646565b8280016001018555821562000646579182015b828111156200064557825182559160200191906001019062000628565b5b50905062000655919062000659565b5090565b5b80821115620006745760008160009055506001016200065a565b5090565b61413280620006886000396000f3fe608060405260043610610216576000357c0100000000000000000000000000000000000000000000000000000000900480636b3e31eb1161012a578063a22cb465116100bd578063cb774d471161008c578063cb774d4714610cfb578063d96c17d314610d26578063e36d649814610db6578063e985e9c514610de1578063f2fde38b14610e6857610216565b8063a22cb46514610a87578063b88d4fde14610ae4578063bc28d70214610bf6578063c87b56dd14610c4757610216565b806374df39c9116100f957806374df39c9146109745780638da5cb5b1461098b578063946807fd146109cc57806395d89b41146109f757610216565b80636b3e31eb1461083a5780636c0360eb1461086857806370a08231146108f8578063715018a61461095d57610216565b80632f745c59116101ad57806342842e0e1161017c57806342842e0e146106505780634980e1be146106cb5780634ec04e161461075b5780634f6ccce7146107865780636352211e146107d557610216565b80632f745c59146104d75780632fc13d111461054657806339a0c6f9146105715780633ccfd60b1461063957610216565b8063095ea7b3116101e9578063095ea7b3146103ab57806318160ddd1461040657806318e20a381461043157806323b872dd1461045c57610216565b806301ffc9a71461021b57806302247b741461028b57806306fdde03146102b6578063081812fc14610346575b600080fd5b34801561022757600080fd5b506102736004803603602081101561023e57600080fd5b8101908080357bffffffffffffffffffffffffffffffffffffffffffffffffffffffff19169060200190929190505050610eb9565b60405180821515815260200191505060405180910390f35b34801561029757600080fd5b506102a0610f20565b6040518082815260200191505060405180910390f35b3480156102c257600080fd5b506102cb6110b0565b6040518080602001828103825283818151815260200191508051906020019080838360005b8381101561030b5780820151818401526020810190506102f0565b50505050905090810190601f1680156103385780820380516001836020036101000a031916815260200191505b509250505060405180910390f35b34801561035257600080fd5b5061037f6004803603602081101561036957600080fd5b8101908080359060200190929190505050611152565b604051808273ffffffffffffffffffffffffffffffffffffffff16815260200191505060405180910390f35b3480156103b757600080fd5b50610404600480360360408110156103ce57600080fd5b81019080803573ffffffffffffffffffffffffffffffffffffffff169060200190929190803590602001909291905050506111ed565b005b34801561041257600080fd5b5061041b611331565b6040518082815260200191505060405180910390f35b34801561043d57600080fd5b50610446611342565b6040518082815260200191505060405180910390f35b34801561046857600080fd5b506104d56004803603606081101561047f57600080fd5b81019080803573ffffffffffffffffffffffffffffffffffffffff169060200190929190803573ffffffffffffffffffffffffffffffffffffffff1690602001909291908035906020019092919050505061134f565b005b3480156104e357600080fd5b50610530600480360360408110156104fa57600080fd5b81019080803573ffffffffffffffffffffffffffffffffffffffff169060200190929190803590602001909291905050506113c5565b6040518082815260200191505060405180910390f35b34801561055257600080fd5b5061055b611420565b6040518082815260200191505060405180910390f35b34801561057d57600080fd5b506106376004803603602081101561059457600080fd5b81019080803590602001906401000000008111156105b157600080fd5b8201836020820111156105c357600080fd5b803590602001918460018302840111640100000000831117156105e557600080fd5b91908080601f016020809104026020016040519081016040528093929190818152602001838380828437600081840152601f19601f82011690508083019250505050505050919291929050505061151a565b005b34801561064557600080fd5b5061064e6115d5565b005b34801561065c57600080fd5b506106c96004803603606081101561067357600080fd5b81019080803573ffffffffffffffffffffffffffffffffffffffff169060200190929190803573ffffffffffffffffffffffffffffffffffffffff169060200190929190803590602001909291905050506116ea565b005b3480156106d757600080fd5b506106e061170a565b6040518080602001828103825283818151815260200191508051906020019080838360005b83811015610720578082015181840152602081019050610705565b50505050905090810190601f16801561074d5780820380516001836020036101000a031916815260200191505b509250505060405180910390f35b34801561076757600080fd5b50610770611726565b6040518082815260200191505060405180910390f35b34801561079257600080fd5b506107bf600480360360208110156107a957600080fd5b810190808035906020019092919050505061172c565b6040518082815260200191505060405180910390f35b3480156107e157600080fd5b5061080e600480360360208110156107f857600080fd5b810190808035906020019092919050505061174f565b604051808273ffffffffffffffffffffffffffffffffffffffff16815260200191505060405180910390f35b6108666004803603602081101561085057600080fd5b8101908080359060200190929190505050611786565b005b34801561087457600080fd5b5061087d611a59565b6040518080602001828103825283818151815260200191508051906020019080838360005b838110156108bd5780820151818401526020810190506108a2565b50505050905090810190601f1680156108ea5780820380516001836020036101000a031916815260200191505b509250505060405180910390f35b34801561090457600080fd5b506109476004803603602081101561091b57600080fd5b81019080803573ffffffffffffffffffffffffffffffffffffffff169060200190929190505050611afb565b6040518082815260200191505060405180910390f35b34801561096957600080fd5b50610972611bd0565b005b34801561098057600080fd5b50610989611d40565b005b34801561099757600080fd5b506109a0611e9a565b604051808273ffffffffffffffffffffffffffffffffffffffff16815260200191505060405180910390f35b3480156109d857600080fd5b506109e1611ec4565b6040518082815260200191505060405180910390f35b348015610a0357600080fd5b50610a0c611ecc565b6040518080602001828103825283818151815260200191508051906020019080838360005b83811015610a4c578082015181840152602081019050610a31565b50505050905090810190601f168015610a795780820380516001836020036101000a031916815260200191505b509250505060405180910390f35b348015610a9357600080fd5b50610ae260048036036040811015610aaa57600080fd5b81019080803573ffffffffffffffffffffffffffffffffffffffff169060200190929190803515159060200190929190505050611f6e565b005b348015610af057600080fd5b50610bf460048036036080811015610b0757600080fd5b81019080803573ffffffffffffffffffffffffffffffffffffffff169060200190929190803573ffffffffffffffffffffffffffffffffffffffff1690602001909291908035906020019092919080359060200190640100000000811115610b6e57600080fd5b820183602082011115610b8057600080fd5b80359060200191846001830284011164010000000083111715610ba257600080fd5b91908080601f016020809104026020016040519081016040528093929190818152602001838380828437600081840152601f19601f820116905080830192505050505050509192919290505050612124565b005b348015610c0257600080fd5b50610c2f60048036036020811015610c1957600080fd5b810190808035906020019092919050505061219c565b60405180821515815260200191505060405180910390f35b348015610c5357600080fd5b50610c8060048036036020811015610c6a57600080fd5b81019080803590602001909291905050506121c6565b6040518080602001828103825283818151815260200191508051906020019080838360005b83811015610cc0578082015181840152602081019050610ca5565b50505050905090810190601f168015610ced5780820380516001836020036101000a031916815260200191505b509250505060405180910390f35b348015610d0757600080fd5b50610d10612497565b6040518082815260200191505060405180910390f35b348015610d3257600080fd5b50610d3b61249d565b6040518080602001828103825283818151815260200191508051906020019080838360005b83811015610d7b578082015181840152602081019050610d60565b50505050905090810190601f168015610da85780820380516001836020036101000a031916815260200191505b509250505060405180910390f35b348015610dc257600080fd5b50610dcb6124b9565b6040518082815260200191505060405180910390f35b348015610ded57600080fd5b50610e5060048036036040811015610e0457600080fd5b81019080803573ffffffffffffffffffffffffffffffffffffffff169060200190929190803573ffffffffffffffffffffffffffffffffffffffff1690602001909291905050506124bf565b60405180821515815260200191505060405180910390f35b348015610e7457600080fd5b50610eb760048036036020811015610e8b57600080fd5b81019080803573ffffffffffffffffffffffffffffffffffffffff169060200190929190505050612553565b005b6000806000837bffffffffffffffffffffffffffffffffffffffffffffffffffffffff19167bffffffffffffffffffffffffffffffffffffffffffffffffffffffff1916815260200190815260200160002060009054906101000a900460ff169050919050565b60006360491730421015610f7f576040517f08c379a00000000000000000000000000000000000000000000000000000000081526004018080602001828103825260368152602001806140236036913960400191505060405180910390fd5b6121ab610f8a611331565b10610fe0576040517f08c379a000000000000000000000000000000000000000000000000000000000815260040180806020018281038252603381526020018061408a6033913960400191505060405180910390fd5b6000610fea611331565b90506121a7811061100657678ac7230489e800009150506110ad565b6120b78110611020576729a2241af62c00009150506110ad565b611ec3811061103a576717979cfe362a00009150506110ad565b61168f811061105457670c7d713b49da00009150506110ad565b610e5b811061106e576706f05b59d3b200009150506110ad565b610627811061108857670429d069189e00009150506110ad565b604b81106110a15767016345785d8a00009150506110ad565b666a94d74f4300009150505b90565b606060068054600181600116156101000203166002900480601f0160208091040260200160405190810160405280929190818152602001828054600181600116156101000203166002900480156111485780601f1061111d57610100808354040283529160200191611148565b820191906000526020600020905b81548152906001019060200180831161112b57829003601f168201915b5050505050905090565b600061115d82612748565b6111b2576040517f08c379a000000000000000000000000000000000000000000000000000000000815260040180806020018281038252602c815260200180613f43602c913960400191505060405180910390fd5b6004600083815260200190815260200160002060009054906101000a900473ffffffffffffffffffffffffffffffffffffffff169050919050565b60006111f88261174f565b90508073ffffffffffffffffffffffffffffffffffffffff168373ffffffffffffffffffffffffffffffffffffffff16141561127f576040517f08c379a00000000000000000000000000000000000000000000000000000000081526004018080602001828103825260218152602001806140026021913960400191505060405180910390fd5b8073ffffffffffffffffffffffffffffffffffffffff1661129e612765565b73ffffffffffffffffffffffffffffffffffffffff1614806112cd57506112cc816112c7612765565b6124bf565b5b611322576040517f08c379a0000000000000000000000000000000000000000000000000000000008152600401808060200182810382526038815260200180613df36038913960400191505060405180910390fd5b61132c838361276d565b505050565b600061133d6002612826565b905090565b620d2f0063604917300181565b61136061135a612765565b8261283b565b6113b5576040517f08c379a00000000000000000000000000000000000000000000000000000000081526004018080602001828103825260318152602001806140596031913960400191505060405180910390fd5b6113c083838361292f565b505050565b600061141882600160008673ffffffffffffffffffffffffffffffffffffffff1673ffffffffffffffffffffffffffffffffffffffff168152602001908152602001600020612b7290919063ffffffff16565b905092915050565b6000636049173042101561147f576040517f08c379a00000000000000000000000000000000000000000000000000000000081526004018080602001828103825260368152602001806140236036913960400191505060405180910390fd5b6121ab61148a611331565b106114e0576040517f08c379a000000000000000000000000000000000000000000000000000000000815260040180806020018281038252603381526020018061408a6033913960400191505060405180910390fd5b60006114ea611331565b90506105dc81106114ff576014915050611517565b604b811061151157600a915050611517565b60029150505b90565b611522612765565b73ffffffffffffffffffffffffffffffffffffffff16611540611e9a565b73ffffffffffffffffffffffffffffffffffffffff16146115c9576040517f08c379a00000000000000000000000000000000000000000000000000000000081526004018080602001828103825260208152602001807f4f776e61626c653a2063616c6c6572206973206e6f7420746865206f776e657281525060200191505060405180910390fd5b6115d281612b8d565b50565b6115dd612765565b73ffffffffffffffffffffffffffffffffffffffff166115fb611e9a565b73ffffffffffffffffffffffffffffffffffffffff1614611684576040517f08c379a00000000000000000000000000000000000000000000000000000000081526004018080602001828103825260208152602001807f4f776e61626c653a2063616c6c6572206973206e6f7420746865206f776e657281525060200191505060405180910390fd5b60003073ffffffffffffffffffffffffffffffffffffffff163190503373ffffffffffffffffffffffffffffffffffffffff166108fc829081150290604051600060405180830381858888f193505050501580156116e6573d6000803e3d6000fd5b5050565b61170583838360405180602001604052806000815250612124565b505050565b6040518060600160405280603c8152602001613ee6603c913981565b6121ab81565b600080611743836002612ba790919063ffffffff16565b50905080915050919050565b600061177f82604051806060016040528060298152602001613e55602991396002612bd59092919063ffffffff16565b9050919050565b6121ab611791611331565b10611804576040517f08c379a00000000000000000000000000000000000000000000000000000000081526004018080602001828103825260178152602001807f53616c652068617320616c726561647920656e6465642e00000000000000000081525060200191505060405180910390fd5b6000811161187a576040517f08c379a00000000000000000000000000000000000000000000000000000000081526004018080602001828103825260188152602001807f596f752063616e6e6f74206d696e742030205069786c732e000000000000000081525060200191505060405180910390fd5b611882611420565b8111156118da576040517f08c379a0000000000000000000000000000000000000000000000000000000008152600401808060200182810382526046815260200180613e7e6046913960600191505060405180910390fd5b6121ab6118ee6118e8611331565b83612bf5565b1115611945576040517f08c379a000000000000000000000000000000000000000000000000000000000815260040180806020018281038252603b815260200180613f6f603b913960400191505060405180910390fd5b34611957611951610f20565b83612c7d565b146119ad576040517f08c379a0000000000000000000000000000000000000000000000000000000008152600401808060200182810382526024815260200180613d016024913960400191505060405180910390fd5b60005b81811015611a1a5760006119c2611331565b9050620d2f00636049173001421015611a02576001600d600083815260200190815260200160002060006101000a81548160ff0219169083151502179055505b611a0c3382612d03565b5080806001019150506119b0565b506000600b54148015611a4957506121ab611a33611331565b1480611a485750620d2f006360491730014210155b5b15611a565743600b819055505b50565b606060098054600181600116156101000203166002900480601f016020809104026020016040519081016040528092919081815260200182805460018160011615610100020316600290048015611af15780601f10611ac657610100808354040283529160200191611af1565b820191906000526020600020905b815481529060010190602001808311611ad457829003601f168201915b5050505050905090565b60008073ffffffffffffffffffffffffffffffffffffffff168273ffffffffffffffffffffffffffffffffffffffff161415611b82576040517f08c379a000000000000000000000000000000000000000000000000000000000815260040180806020018281038252602a815260200180613e2b602a913960400191505060405180910390fd5b611bc9600160008473ffffffffffffffffffffffffffffffffffffffff1673ffffffffffffffffffffffffffffffffffffffff168152602001908152602001600020612d21565b9050919050565b611bd8612765565b73ffffffffffffffffffffffffffffffffffffffff16611bf6611e9a565b73ffffffffffffffffffffffffffffffffffffffff1614611c7f576040517f08c379a00000000000000000000000000000000000000000000000000000000081526004018080602001828103825260208152602001807f4f776e61626c653a2063616c6c6572206973206e6f7420746865206f776e657281525060200191505060405180910390fd5b600073ffffffffffffffffffffffffffffffffffffffff16600a60009054906101000a900473ffffffffffffffffffffffffffffffffffffffff1673ffffffffffffffffffffffffffffffffffffffff167f8be0079c531659141344cd1fd0a4f28419497f9722a3daafe3b4186f6b6457e060405160405180910390a36000600a60006101000a81548173ffffffffffffffffffffffffffffffffffffffff021916908373ffffffffffffffffffffffffffffffffffffffff160217905550565b6000600c5414611db8576040517f08c379a000000000000000000000000000000000000000000000000000000000815260040180806020018281038252601d8152602001807f5374617274696e6720696e64657820697320616c72656164792073657400000081525060200191505060405180910390fd5b6000600b541415611e31576040517f08c379a00000000000000000000000000000000000000000000000000000000081526004018080602001828103825260208152602001807f5374617274696e6720696e64657820626c6f636b206d7573742062652073657481525060200191505060405180910390fd5b6121ab600b54406001900481611e4357fe5b06600c8190555060ff611e5843600b54612d36565b1115611e79576121ab60014303406001900481611e7157fe5b06600c819055505b6000600c541415611e9857611e91600c546001612bf5565b600c819055505b565b6000600a60009054906101000a900473ffffffffffffffffffffffffffffffffffffffff16905090565b636049173081565b606060078054600181600116156101000203166002900480601f016020809104026020016040519081016040528092919081815260200182805460018160011615610100020316600290048015611f645780601f10611f3957610100808354040283529160200191611f64565b820191906000526020600020905b815481529060010190602001808311611f4757829003601f168201915b5050505050905090565b611f76612765565b73ffffffffffffffffffffffffffffffffffffffff168273ffffffffffffffffffffffffffffffffffffffff161415612017576040517f08c379a00000000000000000000000000000000000000000000000000000000081526004018080602001828103825260198152602001807f4552433732313a20617070726f766520746f2063616c6c65720000000000000081525060200191505060405180910390fd5b8060056000612024612765565b73ffffffffffffffffffffffffffffffffffffffff1673ffffffffffffffffffffffffffffffffffffffff16815260200190815260200160002060008473ffffffffffffffffffffffffffffffffffffffff1673ffffffffffffffffffffffffffffffffffffffff16815260200190815260200160002060006101000a81548160ff0219169083151502179055508173ffffffffffffffffffffffffffffffffffffffff166120d1612765565b73ffffffffffffffffffffffffffffffffffffffff167f17307eab39ab6107e8899845ad3d59bd9653f200f220920489ca2b5937696c318360405180821515815260200191505060405180910390a35050565b61213561212f612765565b8361283b565b61218a576040517f08c379a00000000000000000000000000000000000000000000000000000000081526004018080602001828103825260318152602001806140596031913960400191505060405180910390fd5b61219684848484612db9565b50505050565b6000600d600083815260200190815260200160002060009054906101000a900460ff169050919050565b60606121d182612748565b612226576040517f08c379a000000000000000000000000000000000000000000000000000000000815260040180806020018281038252602f815260200180613fd3602f913960400191505060405180910390fd5b6000600860008481526020019081526020016000208054600181600116156101000203166002900480601f0160208091040260200160405190810160405280929190818152602001828054600181600116156101000203166002900480156122cf5780601f106122a4576101008083540402835291602001916122cf565b820191906000526020600020905b8154815290600101906020018083116122b257829003601f168201915b5050505050905060006122e0611a59565b90506000815114156122f6578192505050612492565b6000825111156123c75780826040516020018083805190602001908083835b602083106123385780518252602082019150602081019050602083039250612315565b6001836020036101000a03801982511681845116808217855250505050505090500182805190602001908083835b602083106123895780518252602082019150602081019050602083039250612366565b6001836020036101000a0380198251168184511680821785525050505050509050019250505060405160208183030381529060405292505050612492565b806123d185612e2b565b6040516020018083805190602001908083835b6020831061240757805182526020820191506020810190506020830392506123e4565b6001836020036101000a03801982511681845116808217855250505050505090500182805190602001908083835b602083106124585780518252602082019150602081019050602083039250612435565b6001836020036101000a03801982511681845116808217855250505050505090500192505050604051602081830303815290604052925050505b919050565b600c5481565b6040518060600160405280604081526020016140bd6040913981565b600b5481565b6000600560008473ffffffffffffffffffffffffffffffffffffffff1673ffffffffffffffffffffffffffffffffffffffff16815260200190815260200160002060008373ffffffffffffffffffffffffffffffffffffffff1673ffffffffffffffffffffffffffffffffffffffff16815260200190815260200160002060009054906101000a900460ff16905092915050565b61255b612765565b73ffffffffffffffffffffffffffffffffffffffff16612579611e9a565b73ffffffffffffffffffffffffffffffffffffffff1614612602576040517f08c379a00000000000000000000000000000000000000000000000000000000081526004018080602001828103825260208152602001807f4f776e61626c653a2063616c6c6572206973206e6f7420746865206f776e657281525060200191505060405180910390fd5b600073ffffffffffffffffffffffffffffffffffffffff168173ffffffffffffffffffffffffffffffffffffffff161415612688576040517f08c379a0000000000000000000000000000000000000000000000000000000008152600401808060200182810382526026815260200180613d576026913960400191505060405180910390fd5b8073ffffffffffffffffffffffffffffffffffffffff16600a60009054906101000a900473ffffffffffffffffffffffffffffffffffffffff1673ffffffffffffffffffffffffffffffffffffffff167f8be0079c531659141344cd1fd0a4f28419497f9722a3daafe3b4186f6b6457e060405160405180910390a380600a60006101000a81548173ffffffffffffffffffffffffffffffffffffffff021916908373ffffffffffffffffffffffffffffffffffffffff16021790555050565b600061275e826002612f9190919063ffffffff16565b9050919050565b600033905090565b816004600083815260200190815260200160002060006101000a81548173ffffffffffffffffffffffffffffffffffffffff021916908373ffffffffffffffffffffffffffffffffffffffff160217905550808273ffffffffffffffffffffffffffffffffffffffff166127e08361174f565b73ffffffffffffffffffffffffffffffffffffffff167f8c5be1e5ebec7d5bd14f71427d1e84f3dd0314c0f7b2291e5b200ac8c7c3b92560405160405180910390a45050565b600061283482600001612fab565b9050919050565b600061284682612748565b61289b576040517f08c379a000000000000000000000000000000000000000000000000000000000815260040180806020018281038252602c815260200180613dc7602c913960400191505060405180910390fd5b60006128a68361174f565b90508073ffffffffffffffffffffffffffffffffffffffff168473ffffffffffffffffffffffffffffffffffffffff16148061291557508373ffffffffffffffffffffffffffffffffffffffff166128fd84611152565b73ffffffffffffffffffffffffffffffffffffffff16145b80612926575061292581856124bf565b5b91505092915050565b8273ffffffffffffffffffffffffffffffffffffffff1661294f8261174f565b73ffffffffffffffffffffffffffffffffffffffff16146129bb576040517f08c379a0000000000000000000000000000000000000000000000000000000008152600401808060200182810382526029815260200180613faa6029913960400191505060405180910390fd5b600073ffffffffffffffffffffffffffffffffffffffff168273ffffffffffffffffffffffffffffffffffffffff161415612a41576040517f08c379a0000000000000000000000000000000000000000000000000000000008152600401808060200182810382526024815260200180613d7d6024913960400191505060405180910390fd5b612a4c838383612fbc565b612a5760008261276d565b612aa881600160008673ffffffffffffffffffffffffffffffffffffffff1673ffffffffffffffffffffffffffffffffffffffff168152602001908152602001600020612fc190919063ffffffff16565b50612afa81600160008573ffffffffffffffffffffffffffffffffffffffff1673ffffffffffffffffffffffffffffffffffffffff168152602001908152602001600020612fdb90919063ffffffff16565b50612b1181836002612ff59092919063ffffffff16565b50808273ffffffffffffffffffffffffffffffffffffffff168473ffffffffffffffffffffffffffffffffffffffff167fddf252ad1be2c89b69c2b068fc378daa952ba7f163c4a11628f55a4df523b3ef60405160405180910390a4505050565b6000612b81836000018361302a565b60019004905092915050565b8060099080519060200190612ba3929190613c33565b5050565b600080600080612bba86600001866130ad565b91509150816001900481600190049350935050509250929050565b6000612be8846000018460010284613146565b6001900490509392505050565b600080828401905083811015612c73576040517f08c379a000000000000000000000000000000000000000000000000000000000815260040180806020018281038252601b8152602001807f536166654d6174683a206164646974696f6e206f766572666c6f77000000000081525060200191505060405180910390fd5b8091505092915050565b600080831415612c905760009050612cfd565b6000828402905082848281612ca157fe5b0414612cf8576040517f08c379a0000000000000000000000000000000000000000000000000000000008152600401808060200182810382526021815260200180613f226021913960400191505060405180910390fd5b809150505b92915050565b612d1d82826040518060200160405280600081525061323c565b5050565b6000612d2f826000016132ad565b9050919050565b600082821115612dae576040517f08c379a000000000000000000000000000000000000000000000000000000000815260040180806020018281038252601e8152602001807f536166654d6174683a207375627472616374696f6e206f766572666c6f77000081525060200191505060405180910390fd5b818303905092915050565b612dc484848461292f565b612dd0848484846132be565b612e25576040517f08c379a0000000000000000000000000000000000000000000000000000000008152600401808060200182810382526032815260200180613d256032913960400191505060405180910390fd5b50505050565b60606000821415612e73576040518060400160405280600181526020017f30000000000000000000000000000000000000000000000000000000000000008152509050612f8c565b600082905060005b60008214612e9d578080600101915050600a8281612e9557fe5b049150612e7b565b60008167ffffffffffffffff81118015612eb657600080fd5b506040519080825280601f01601f191660200182016040528015612ee95781602001600182028036833780820191505090505b50905060006001830390508593505b60008414612f8457600a8481612f0a57fe5b066030017f01000000000000000000000000000000000000000000000000000000000000000282828060019003935081518110612f4357fe5b60200101907effffffffffffffffffffffffffffffffffffffffffffffffffffffffffffff1916908160001a905350600a8481612f7c57fe5b049350612ef8565b819450505050505b919050565b6000612fa3836000018360010261350f565b905092915050565b600081600001805490509050919050565b505050565b6000612fd38360000183600102613532565b905092915050565b6000612fed836000018360010261361a565b905092915050565b600061302184600001846001028473ffffffffffffffffffffffffffffffffffffffff1660010261368a565b90509392505050565b60008183600001805490501161308b576040517f08c379a0000000000000000000000000000000000000000000000000000000008152600401808060200182810382526022815260200180613cdf6022913960400191505060405180910390fd5b82600001828154811061309a57fe5b9060005260206000200154905092915050565b6000808284600001805490501161310f576040517f08c379a0000000000000000000000000000000000000000000000000000000008152600401808060200182810382526022815260200180613ec46022913960400191505060405180910390fd5b600084600001848154811061312057fe5b906000526020600020906002020190508060000154816001015492509250509250929050565b6000808460010160008581526020019081526020016000205490506000811415839061320d576040517f08c379a00000000000000000000000000000000000000000000000000000000081526004018080602001828103825283818151815260200191508051906020019080838360005b838110156131d25780820151818401526020810190506131b7565b50505050905090810190601f1680156131ff5780820380516001836020036101000a031916815260200191505b509250505060405180910390fd5b5084600001600182038154811061322057fe5b9060005260206000209060020201600101549150509392505050565b6132468383613766565b61325360008484846132be565b6132a8576040517f08c379a0000000000000000000000000000000000000000000000000000000008152600401808060200182810382526032815260200180613d256032913960400191505060405180910390fd5b505050565b600081600001805490509050919050565b60006132df8473ffffffffffffffffffffffffffffffffffffffff1661395a565b6132ec5760019050613507565b600061347263150b7a027c01000000000000000000000000000000000000000000000000000000000261331d612765565b888787604051602401808573ffffffffffffffffffffffffffffffffffffffff1681526020018473ffffffffffffffffffffffffffffffffffffffff16815260200183815260200180602001828103825283818151815260200191508051906020019080838360005b838110156133a1578082015181840152602081019050613386565b50505050905090810190601f1680156133ce5780820380516001836020036101000a031916815260200191505b5095505050505050604051602081830303815290604052907bffffffffffffffffffffffffffffffffffffffffffffffffffffffff19166020820180517bffffffffffffffffffffffffffffffffffffffffffffffffffffffff8381831617835250505050604051806060016040528060328152602001613d25603291398773ffffffffffffffffffffffffffffffffffffffff1661396d9092919063ffffffff16565b9050600081806020019051602081101561348b57600080fd5b8101908080519060200190929190505050905063150b7a027c0100000000000000000000000000000000000000000000000000000000027bffffffffffffffffffffffffffffffffffffffffffffffffffffffff1916817bffffffffffffffffffffffffffffffffffffffffffffffffffffffff191614925050505b949350505050565b600080836001016000848152602001908152602001600020541415905092915050565b6000808360010160008481526020019081526020016000205490506000811461360e576000600182039050600060018660000180549050039050600086600001828154811061357d57fe5b906000526020600020015490508087600001848154811061359a57fe5b90600052602060002001819055506001830187600101600083815260200190815260200160002081905550866000018054806135d257fe5b60019003818190600052602060002001600090559055866001016000878152602001908152602001600020600090556001945050505050613614565b60009150505b92915050565b60006136268383613985565b61367f578260000182908060018154018082558091505060019003906000526020600020016000909190919091505582600001805490508360010160008481526020019081526020016000208190555060019050613684565b600090505b92915050565b60008084600101600085815260200190815260200160002054905060008114156137315784600001604051806040016040528086815260200185815250908060018154018082558091505060019003906000526020600020906002020160009091909190915060008201518160000155602082015181600101555050846000018054905085600101600086815260200190815260200160002081905550600191505061375f565b8285600001600183038154811061374457fe5b90600052602060002090600202016001018190555060009150505b9392505050565b600073ffffffffffffffffffffffffffffffffffffffff168273ffffffffffffffffffffffffffffffffffffffff161415613809576040517f08c379a00000000000000000000000000000000000000000000000000000000081526004018080602001828103825260208152602001807f4552433732313a206d696e7420746f20746865207a65726f206164647265737381525060200191505060405180910390fd5b61381281612748565b15613885576040517f08c379a000000000000000000000000000000000000000000000000000000000815260040180806020018281038252601c8152602001807f4552433732313a20746f6b656e20616c7265616479206d696e7465640000000081525060200191505060405180910390fd5b61389160008383612fbc565b6138e281600160008573ffffffffffffffffffffffffffffffffffffffff1673ffffffffffffffffffffffffffffffffffffffff168152602001908152602001600020612fdb90919063ffffffff16565b506138f981836002612ff59092919063ffffffff16565b50808273ffffffffffffffffffffffffffffffffffffffff16600073ffffffffffffffffffffffffffffffffffffffff167fddf252ad1be2c89b69c2b068fc378daa952ba7f163c4a11628f55a4df523b3ef60405160405180910390a45050565b600080823b905060008111915050919050565b606061397c84846000856139a8565b90509392505050565b600080836001016000848152602001908152602001600020541415905092915050565b6060823073ffffffffffffffffffffffffffffffffffffffff16311015613a1a576040517f08c379a0000000000000000000000000000000000000000000000000000000008152600401808060200182810382526026815260200180613da16026913960400191505060405180910390fd5b613a238561395a565b613a95576040517f08c379a000000000000000000000000000000000000000000000000000000000815260040180806020018281038252601d8152602001807f416464726573733a2063616c6c20746f206e6f6e2d636f6e747261637400000081525060200191505060405180910390fd5b6000808673ffffffffffffffffffffffffffffffffffffffff1685876040518082805190602001908083835b60208310613ae45780518252602082019150602081019050602083039250613ac1565b6001836020036101000a03801982511681845116808217855250505050505090500191505060006040518083038185875af1925050503d8060008114613b46576040519150601f19603f3d011682016040523d82523d6000602084013e613b4b565b606091505b5091509150613b5b828286613b67565b92505050949350505050565b60608315613b7757829050613c2c565b600083511115613b8a5782518084602001fd5b816040517f08c379a00000000000000000000000000000000000000000000000000000000081526004018080602001828103825283818151815260200191508051906020019080838360005b83811015613bf1578082015181840152602081019050613bd6565b50505050905090810190601f168015613c1e5780820380516001836020036101000a031916815260200191505b509250505060405180910390fd5b9392505050565b828054600181600116156101000203166002900490600052602060002090601f016020900481019282613c695760008555613cb0565b82601f10613c8257805160ff1916838001178555613cb0565b82800160010185558215613cb0579182015b82811115613caf578251825591602001919060010190613c94565b5b509050613cbd9190613cc1565b5090565b5b80821115613cda576000816000905550600101613cc2565b509056fe456e756d657261626c655365743a20696e646578206f7574206f6620626f756e6473416d6f756e74206f662045746865722073656e74206973206e6f7420636f72726563742e4552433732313a207472616e7366657220746f206e6f6e20455243373231526563656976657220696d706c656d656e7465724f776e61626c653a206e6577206f776e657220697320746865207a65726f20616464726573734552433732313a207472616e7366657220746f20746865207a65726f2061646472657373416464726573733a20696e73756666696369656e742062616c616e636520666f722063616c6c4552433732313a206f70657261746f7220717565727920666f72206e6f6e6578697374656e7420746f6b656e4552433732313a20617070726f76652063616c6c6572206973206e6f74206f776e6572206e6f7220617070726f76656420666f7220616c6c4552433732313a2062616c616e636520717565727920666f7220746865207a65726f20616464726573734552433732313a206f776e657220717565727920666f72206e6f6e6578697374656e7420746f6b656e596f7520617265206e6f7420616c6c6f77656420746f206275792074686973206d616e79205069786c73206174206f6e636520696e207468697320707269636520746965722e456e756d657261626c654d61703a20696e646578206f7574206f6620626f756e6473546f2074616b652061776179206f75722065787072657373696f6e2c20697320746f20656d706f766572697368206f7572206578697374656e63652e536166654d6174683a206d756c7469706c69636174696f6e206f766572666c6f774552433732313a20617070726f76656420717565727920666f72206e6f6e6578697374656e7420746f6b656e45786365656473206d6178696d756d205069786c20737570706c792e20506c656173652074727920746f206d696e74206c657373205069786c732e4552433732313a207472616e73666572206f6620746f6b656e2074686174206973206e6f74206f776e4552433732314d657461646174613a2055524920717565727920666f72206e6f6e6578697374656e7420746f6b656e4552433732313a20617070726f76616c20746f2063757272656e74206f776e657253616c6520686173206e6f7420737461727465642079657420736f20796f752063616e2774206765742061207072696365207965742e4552433732313a207472616e736665722063616c6c6572206973206e6f74206f776e6572206e6f7220617070726f76656453616c652068617320616c726561647920656e6465642c206e6f206d6f7265205069786c73206c65667420746f2073656c6c2e39323230626334653033373932633366643933373635313764306263616362353438633461376462363066613762326564623039326464343833616136656561a26469706673582212207cb0cb16d7f9a2e0703c15e846b79c34b75371ac2393e51b6582c7c9ef339a4e64736f6c63430007060033",
  "immutableReferences": {},
  "source": "pragma solidity >=0.7.0;\r\n\r\nimport \"@openzeppelin/contracts/token/ERC721/ERC721.sol\";\r\nimport \"@openzeppelin/contracts/access/Ownable.sol\";\r\nimport \"./IMintedBeforeReveal.sol\";\r\n\r\ncontract Pixls is ERC721, Ownable, IMintedBeforeReveal {\r\n\r\n    // This is the original provenance record of all Pixls in existence at the time.\r\n    string public constant ORIGINAL_PROVENANCE = \"9220bc4e03792c3fd9376517d0bcacb548c4a7db60fa7b2edb092dd483aa6eea\";\r\n\r\n    // Time of when the sale starts.\r\n    uint256 public constant SALE_START_TIMESTAMP = 1615402800;\r\n\r\n    // Time after which the Pixls are randomized and revealed (10 days from initial launch).\r\n    uint256 public constant REVEAL_TIMESTAMP = SALE_START_TIMESTAMP + (86400 * 10);\r\n\r\n    // Maximum amount of Pixls in existance. Ever.\r\n    uint256 public constant MAX_PIXL_SUPPLY = 8619;\r\n\r\n    // Truth.\r\n    string public constant R = \"To take away our expression, is to empoverish our existence.\";\r\n\r\n    // The block in which the starting index was created.\r\n    uint256 public startingIndexBlock;\r\n\r\n    // The index of the item that will be #1.\r\n    uint256 public startingIndex;\r\n\r\n    // Mapping from token ID to whether the Pixl was minted before reveal.\r\n    mapping (uint256 => bool) private _mintedBeforeReveal;\r\n\r\n    constructor(string memory name, string memory symbol, string memory baseURI) ERC721(name, symbol) {\r\n        _setBaseURI(baseURI);\r\n    }\r\n\r\n    /**\r\n    * @dev Returns if the Pixl was minted before reveal phase. This could come in handy later.\r\n    */\r\n    function isMintedBeforeReveal(uint256 index) public view override returns (bool) {\r\n        return _mintedBeforeReveal[index];\r\n    }\r\n\r\n    /**\r\n    * @dev Gets current Pixl price based on current supply.\r\n    */\r\n    function getPixlMaxAmount() public view returns (uint256) {\r\n        require(block.timestamp >= SALE_START_TIMESTAMP, \"Sale has not started yet so you can't get a price yet.\");\r\n        require(totalSupply() < MAX_PIXL_SUPPLY, \"Sale has already ended, no more Pixls left to sell.\");\r\n\r\n        uint currentSupply = totalSupply();\r\n        \r\n        if (currentSupply >= 1500) {\r\n            return 20; // After 1500, do it per 20.\r\n        }\r\n        else if (currentSupply >= 75) {\r\n            return 10; // From 75 to 1500 - per 10.\r\n        } \r\n        else {\r\n            return 2; // First 75 can only be bought per 2.\r\n        }\r\n    }\r\n\r\n    /**\r\n    * @dev Gets current Pixl price based on current supply.\r\n    */\r\n    function getPixlPrice() public view returns (uint256) {\r\n        require(block.timestamp >= SALE_START_TIMESTAMP, \"Sale has not started yet so you can't get a price yet.\");\r\n        require(totalSupply() < MAX_PIXL_SUPPLY, \"Sale has already ended, no more Pixls left to sell.\");\r\n\r\n        uint currentSupply = totalSupply();\r\n\r\n        if (currentSupply >= 8615) {\r\n            return 10000000000000000000; // 8615 - 8618 10 ETH\r\n        } else if (currentSupply >= 8375) {\r\n            return 3000000000000000000; // 8375 - 8614 3.0 ETH\r\n        } else if (currentSupply >= 7875) {\r\n            return 1700000000000000000; // 7875  - 8374 1.7 ETH\r\n        } else if (currentSupply >= 5775) {\r\n            return 900000000000000000; // 5775 - 7874 0.9 ETH\r\n        } else if (currentSupply >= 3675) {\r\n            return 500000000000000000; // 3675 - 5774 0.5 ETH\r\n        } else if (currentSupply >= 1575) {\r\n            return 300000000000000000; // 1575 - 3674 0.3 ETH\r\n        } else if (currentSupply >= 75) {\r\n            return 100000000000000000; // 75 - 1574 0.1 ETH\r\n        } else {\r\n            return 30000000000000000; // 0 - 74 0.03 ETH \r\n        }\r\n    }\r\n\r\n    /**\r\n    * @dev Mints yourself a Pixl. Or more. You do you.\r\n    */\r\n    function mintAPixl(uint256 numberOfPixls) public payable {\r\n        // Some exceptions that need to be handled.\r\n        require(totalSupply() < MAX_PIXL_SUPPLY, \"Sale has already ended.\");\r\n        require(numberOfPixls > 0, \"You cannot mint 0 Pixls.\");\r\n        require(numberOfPixls <= getPixlMaxAmount(), \"You are not allowed to buy this many Pixls at once in this price tier.\");\r\n        require(SafeMath.add(totalSupply(), numberOfPixls) <= MAX_PIXL_SUPPLY, \"Exceeds maximum Pixl supply. Please try to mint less Pixls.\");\r\n        require(SafeMath.mul(getPixlPrice(), numberOfPixls) == msg.value, \"Amount of Ether sent is not correct.\");\r\n\r\n        // Mint the amount of provided Pixls.\r\n        for (uint i = 0; i < numberOfPixls; i++) {\r\n            uint mintIndex = totalSupply();\r\n            if (block.timestamp < REVEAL_TIMESTAMP) {\r\n                _mintedBeforeReveal[mintIndex] = true;\r\n            }\r\n            _safeMint(msg.sender, mintIndex);\r\n        }\r\n\r\n        // Source of randomness. Theoretical miner withhold manipulation possible but should be sufficient in a pragmatic sense\r\n        // Set the starting block index when the sale concludes either time-wise or the supply runs out.\r\n        if (startingIndexBlock == 0 && (totalSupply() == MAX_PIXL_SUPPLY || block.timestamp >= REVEAL_TIMESTAMP)) {\r\n            startingIndexBlock = block.number;\r\n        }\r\n    }\r\n\r\n    /**\r\n    * @dev Finalize starting index\r\n    */\r\n    function finalizeStartingIndex() public {\r\n        require(startingIndex == 0, \"Starting index is already set\");\r\n        require(startingIndexBlock != 0, \"Starting index block must be set\");\r\n        \r\n        startingIndex = uint(blockhash(startingIndexBlock)) % MAX_PIXL_SUPPLY;\r\n\r\n        // Just a sanity case in the worst case if this function is called late (EVM only stores last 256 block hashes).\r\n        if (SafeMath.sub(block.number, startingIndexBlock) > 255) {\r\n            startingIndex = uint(blockhash(block.number-1)) % MAX_PIXL_SUPPLY;\r\n        }\r\n\r\n        // Prevent default sequence because that would be a bit boring.\r\n        if (startingIndex == 0) {\r\n            startingIndex = SafeMath.add(startingIndex, 1);\r\n        }\r\n    }\r\n\r\n    /**\r\n    * @dev Withdraw ether from this contract (Callable by owner only)\r\n    */\r\n    function withdraw() onlyOwner public {\r\n        uint balance = address(this).balance;\r\n        msg.sender.transfer(balance);\r\n    }\r\n\r\n    /**\r\n    * @dev Changes the base URI if we want to move things in the future (Callable by owner only)\r\n    */\r\n    function changeBaseURI(string memory baseURI) onlyOwner public {\r\n       _setBaseURI(baseURI);\r\n    }\r\n}",
  "sourcePath": "E:/WORK/210319_mockup/smartcontract/contracts/Pixls.sol",
  "compiler": {
    "name": "solc",
    "version": "0.7.6+commit.7338295f.Emscripten.clang"
  },
  "schemaVersion": "3.3.4",
  "updatedAt": "2021-03-21T07:21:07.596Z",
  "networkType": "ethereum",
  "devdoc": {
    "kind": "dev",
    "methods": {
      "approve(address,uint256)": {
        "details": "See {IERC721-approve}."
      },
      "balanceOf(address)": {
        "details": "See {IERC721-balanceOf}."
      },
      "baseURI()": {
        "details": "Returns the base URI set via {_setBaseURI}. This will be automatically added as a prefix in {tokenURI} to each token's URI, or to the token ID if no specific URI is set for that token ID."
      },
      "changeBaseURI(string)": {
        "details": "Changes the base URI if we want to move things in the future (Callable by owner only)"
      },
      "finalizeStartingIndex()": {
        "details": "Finalize starting index"
      },
      "getApproved(uint256)": {
        "details": "See {IERC721-getApproved}."
      },
      "getPixlMaxAmount()": {
        "details": "Gets current Pixl price based on current supply."
      },
      "getPixlPrice()": {
        "details": "Gets current Pixl price based on current supply."
      },
      "isApprovedForAll(address,address)": {
        "details": "See {IERC721-isApprovedForAll}."
      },
      "isMintedBeforeReveal(uint256)": {
        "details": "Returns if the Pixl was minted before reveal phase. This could come in handy later."
      },
      "mintAPixl(uint256)": {
        "details": "Mints yourself a Pixl. Or more. You do you."
      },
      "name()": {
        "details": "See {IERC721Metadata-name}."
      },
      "owner()": {
        "details": "Returns the address of the current owner."
      },
      "ownerOf(uint256)": {
        "details": "See {IERC721-ownerOf}."
      },
      "renounceOwnership()": {
        "details": "Leaves the contract without owner. It will not be possible to call `onlyOwner` functions anymore. Can only be called by the current owner. NOTE: Renouncing ownership will leave the contract without an owner, thereby removing any functionality that is only available to the owner."
      },
      "safeTransferFrom(address,address,uint256)": {
        "details": "See {IERC721-safeTransferFrom}."
      },
      "safeTransferFrom(address,address,uint256,bytes)": {
        "details": "See {IERC721-safeTransferFrom}."
      },
      "setApprovalForAll(address,bool)": {
        "details": "See {IERC721-setApprovalForAll}."
      },
      "supportsInterface(bytes4)": {
        "details": "See {IERC165-supportsInterface}. Time complexity O(1), guaranteed to always use less than 30 000 gas."
      },
      "symbol()": {
        "details": "See {IERC721Metadata-symbol}."
      },
      "tokenByIndex(uint256)": {
        "details": "See {IERC721Enumerable-tokenByIndex}."
      },
      "tokenOfOwnerByIndex(address,uint256)": {
        "details": "See {IERC721Enumerable-tokenOfOwnerByIndex}."
      },
      "tokenURI(uint256)": {
        "details": "See {IERC721Metadata-tokenURI}."
      },
      "totalSupply()": {
        "details": "See {IERC721Enumerable-totalSupply}."
      },
      "transferFrom(address,address,uint256)": {
        "details": "See {IERC721-transferFrom}."
      },
      "transferOwnership(address)": {
        "details": "Transfers ownership of the contract to a new account (`newOwner`). Can only be called by the current owner."
      },
      "withdraw()": {
        "details": "Withdraw ether from this contract (Callable by owner only)"
      }
    },
    "version": 1
  },
  "userdoc": {
    "kind": "user",
    "methods": {},
    "version": 1
  }
}